:020000040800F2
:100000000000022005090008010900083526000843
:1000100001090008010900080109000800000000AA
:1000200000000000000000000000000001090008BE
:10003000010900080000000001090008B9250008B6
:100040000109000801090008010900080109000868
:100050000109000801090008010900080109000858
:1000600001090008010900080109000859230008D6
:100070006523000801090008712300087D2300089A
:10008000F9B7000831180008010900080109000843
:100090000109000801090008010900080109000818
:1000A0000109000801090008010900080109000808
:1000B00015AC000821AC00082DAC00086118000840
:1000C000010900086D18000801090008D1A4000802
:1000D000DDA4000809B6000839B6000871B60008AA
:1000E00001090008010900080000000001090008DA
:1000F00001090008010900080109000801090008B8
:10010000010900080109000839AC0008E9A4000849
:10011000A9B60008E1B600080109000801090008B5
:1001200001090008010900080DA5000841A5000803
:100130002DB800080109000801090008010900089C
:1001400000000000000000000000000000000000AF
:1001500001090008010900080109000819B7000891
:100160007918000801090008C9250008ED250008D4
:10017000010900081126000801090008010900080A
:10018000010900080109000851B7000889B70008F3
:10019000F5A4000801A500080109000801090008EC
:1001A0000109000801090008010900080109000807
:1001B000D11F000801090008010900080109000811
:1001C00001090008010900080109000801090008E7
:1001D00001090008010900080109000801090008D7
:1001E00001090008010900080109000801090008C7
:1001F00001090008010900080109000801090008B7
:1002000001090008010900080109000801090008A6
:100210000109000801090008010900080109000896
:100220000109000801090008010900080000000098
:100230000109000801090008000000000109000888
:100240000109000801090008010900080109000866
:100250000109000801090008010900080109000856
:100260000109000801090008010900080109000846
:100270000109000801090008C1B7000800000000DA
:100280000109000801090008010900080000000038
:08029000000000000109000854
:100298000348044B834202D0034B03B1184770470D
:1002A8007C0300247C030024000000000548064B62
:1002B8001B1AD90F01EBA301491002D0034B03B15C
:1002C800184770477C0300247C03002400000000CA
:1002D80010B5064C237843B9FFF7DAFF044B13B186
:1002E8000448AFF300800123237010BD800300246D
:1002F800000000000CDC000808B5044B1BB10449E1
:100308000448AFF30080BDE80840CFE700000000D4
:10031800840300240CDC000870B50F4B0F4DAB4272
:10032800A3EB050607D0B610002455F8043B0134AA
:100338009847A642F9D80DF059FC094D094B5E1BA8
:10034800AB424FEAA60606D0002455F8043B013418
:100358009847A642F9D870BD14DC000814DC0008E0
:1003680014DC000838DC0008830730B547D0541E79
:10037800002A3ED0CAB2034601E0013C39D303F853
:10038800012B9D07F9D1032C2CD9CDB205EB0525FE
:100398000F2C05EB054535D9A4F1100222F00F0CFE
:1003A80003F1100EE6444FEA121C1A46C2E9005542
:1003B800C2E9025510327245F8D10CF1010214F06D
:1003C8000C0F03EB021204F00F0C13D0ACF1040372
:1003D80023F003030433134442F8045B9342FBD134
:1003E8000CF003042CB1C9B21C4403F8011BA3424E
:1003F800FBD130BD64461346002CF4D1F9E703461F
:100408001446C0E71A46A446E0E700BF10B5054CFD
:1004180034B113460A460146022000F09FF810BD89
:10042800204610BD65050008844641EA000313F024
:1004380003036DD1403A41D351F8043B40F8043BE3
:1004480051F8043B40F8043B51F8043B40F8043BA6
:1004580051F8043B40F8043B51F8043B40F8043B96
:1004680051F8043B40F8043B51F8043B40F8043B86
:1004780051F8043B40F8043B51F8043B40F8043B76
:1004880051F8043B40F8043B51F8043B40F8043B66
:1004980051F8043B40F8043B51F8043B40F8043B56
:1004A80051F8043B40F8043B51F8043B40F8043B46
:1004B80051F8043B40F8043B403ABDD2303211D3E6
:1004C80051F8043B40F8043B51F8043B40F8043B26
:1004D80051F8043B40F8043B51F8043B40F8043B16
:1004E800103AEDD20C3205D351F8043B40F8043BE6
:1004F800043AF9D2043208D0D2071CBF11F8013BE4
:1005080000F8013B01D30B8803806046704700BFA9
:10051800082A13D38B078DD010F003038AD0C3F1B8
:100528000403D21ADB071CBF11F8013B00F8013B9A
:1005380080D331F8023B20F8023B7BE7043AD9D359
:10054800013A11F8013B00F8013BF9D20B7803702E
:100558004B7843708B78837060467047F0B5264CB3
:10056800256883B006460F4605B36C681F2C3FDC30
:10057800A6B1D5F8880048B3D0F8001140F8242077
:100588004FF0010C0CFA04FC00EB84024CEA010168
:10059800022EC0F80011C2F8803010D0A31C01341C
:1005A8006C6045F82370002003B0F0BD134814496F
:1005B800216010B10068C1F88800114DD5E7D0F866
:1005C800043143EA0C03C0F80431E7E70D49CDE9EB
:1005D800002369B14FF48470AFF3008040B100216B
:1005E800C0E94011DDE900236C68C5F88800C5E75B
:1005F8004FF0FF30D8E700BF300500247CDA000850
:10060800A40400240000000053B94AB9002908BF17
:1006180000281CBF4FF0FF314FF0FF3000F06AB9DF
:10062800ADF1080C6DE904CE00F006F8DDF804E041
:10063800DDE9022304B070472DE9F047089D0E4616
:1006480004460F46002B4AD194468C45B2FA82F2F2
:1006580060D942B1C2F12003974020FA03F30CFAA3
:1006680002FC1F4394404FEA1C4E1FFA8CF6B7FB5E
:10067800FEF1230C0EFB117743EA074301FB06F05A
:1006880098420AD91CEB030301F1FF3780F015816A
:10069800984240F21281023963441B1AA4B2B3FB98
:1006A800FEF00EFB103344EA034400FB06F6A642B4
:1006B8000AD91CEB040400F1FF3380F00081A64244
:1006C80040F2FD806444023840EA0140A41B002146
:1006D8001DB1D4400023C5E90043BDE8F0878B4233
:1006E80005D90DB1C5E9000100210846F5E7B3FABF
:1006F80083F1002946D1B34202D3824200F2F58049
:10070800841A66EB030201201746002DE5D0C5E9DF
:100718000047E2E7002A40F09380A1EB0C034FEA80
:100728001C471FFA8CFE0121B3FBF7F607FB1630B6
:10073800230C43EA00430EFB06F0984208D91CEB51
:10074800030306F1FF3802D2984200F2D0804646F1
:100758001B1AA4B2B3FBF7F007FB103344EA0344B7
:100768000EFB00FEA64508D91CEB040400F1FF337C
:1007780002D2A64500F2B6801846A4EB0E0440EA61
:100788000640A5E7C1F120078B4022FA07FC4CEA96
:10079800030C06FA01FE20FA07F426FA07F344EAE6
:1007A8000E0400FA01F84FEA1C404FEA1449B3FB63
:1007B800F0FE1FFA8CF600FB1E3349EA03430EFBDA
:1007C80006F9994502FA01F20BD91CEB03030EF165
:1007D800FF3A80F08580994540F28280AEF1020EA2
:1007E8006344A3EB0909A4B2B9FBF0F300FB139926
:1007F80044EA094403FB06F6A64208D91CEB0404A4
:1008080003F1FF3068D2A64266D9023B644443EA4A
:100818000E40A41BA0FB02E6B4427346B14652D375
:100828004FD05DB1B8EB030264EB090404FA07F793
:1008380022FA01F31F43CC40C5E9007400214CE7BC
:10084800C2F1200120FA01F30CFA02FC26FA01F1A8
:10085800964033434FEA1C471FFA8CFEB1FBF7F072
:1008680007FB1016190C41EA064100FB0EF68E42F2
:1008780004FA02F408D91CEB010100F1FF382DD26B
:100888008E422BD902386144891B9BB2B1FBF7F623
:1008980007FB161143EA014306FB0EF1994208D9FA
:1008A8001CEB030306F1FF3814D2994212D9023E19
:1008B80063445B1A46EA004136E73946EDE61846D6
:1008C80002E7F045ADD2BEEB020366EB0C06013839
:1008D800B146A6E74646ECE7034698E74046D3E725
:1008E800D6467EE76444023847E708460DE7023EED
:1008F80063442DE7704700BFFEE700BF0B480C4A72
:10090800904203D0121A0B49FFF78EFD0A480B4A92
:10091800904203D0121A0021FFF726FD02F0D6F804
:10092800FFF7FAFC00F00EF8FEE700BF0000002415
:100938007C0300243CDC0008800300245830002499
:10094800704700BF10B50948012400F021F80021C4
:10095800064800F0DDF82146044800F01BF8322074
:1009680084F0010401F0D2FEF5E700BF340500244D
:1009780004480023044A0549036043610362C363D2
:100988000DF058B834050024000000244909000877
:10099800704700BF253000F0F7BD00BF10B540F22A
:1009A80003318EB000244FF60B7340F20342ADF8CA
:1009B8000810029909A8ADF81030ADF824300123C9
:1009C800ADF80C202246009407940C94CDE9054418
:1009D800CDE90A4400F0D6FB04A801232246039976
:1009E800009400F0CFFB09A800F0DAFC10B9012050
:1009F8000EB010BD04A800F0D3FC80F00100C0B216
:100A080040000EB010BD00BF2DE9F04103239AB09D
:100A180001270024149306463A4B1094119340F290
:100A280004531597ADF84830CDE91647FFF7B6FFE0
:100A3800B842054643D0022832D1334B40F6013242
:100A48000DF12C080094CDF84A304FF60B73ADF831
:100A58001820404606993A46ADF82C3023460E94A5
:100A6800CDE91847CDE90C4400F08CFB21464046FF
:100A780000F0A2FC10A906F13C0001F081FC302036
:100A880003224FF07E5341460D930E93CDE90B029E
:100A9800F26B06F1140000F025FB1AB0BDE8F081F6
:100AA80040F60132184B0DF12C08ADF82C200B98AC
:100AB800CDF84A30CDE9184700F0A4F8DAE710235A
:100AC800114A06A906908DF828300DF12C080F4B15
:100AD800CDF84A2009940294CDE90730CDE91804ED
:100AE80002A800F0CBFE0823029A03A94046ADF8FD
:100AF8000C508DF80E40049505930B9400F0C0F847
:100B0800B8E700BF04020404040604030704010B49
:100B18002DE9F041394B0446394D40F201120127C5
:100B280004F104082DED028B456082B0A36003F543
:100B38008133ADF8042040F2027203F5807300207F
:100B4800A4F82520E36040F606632782A4F829303C
:100B580084F8277084F82B7000918DF8060001F056
:100B68006BFF054601F0D4FD6946064610BB0DB380
:100B780004F130008DF8067001F0E6FE072D2ED145
:100B880004F114052046FFF73FFF284600F0E6FA77
:100B98002846B0EE408A00F0DDFAD0ED007AF8EE93
:100BA800677A88EE277A84ED0E7A02B0BDEC028B64
:100BB800BDE8F08104F1300001F0C6FE072D13D125
:100BC800002EDDD004F1250000F000FC04F129001E
:100BD80000F0FCFB04F1120000F072F9D0E7414686
:100BE800204601F079F8CBE74146204601F074F839
:100BF800002EE7D1002DE5D0C2E700BF05070506A6
:100C08000508050910B584B00346012403A8ADF80A
:100C18000C30ADF80E4000F0D9FB214603A800F0D7
:100C2800B3FC204601F072FD002103A800F0ACFCE3
:100C3800204601F06BFD214603A800F0A5FC04B096
:100C480010BD00BF10B5C2F3002384B00C46017C70
:100C58008DF80D2043EA4402FA2402238DF80C2073
:100C680003AA009400F09AFE18B10124204604B0AB
:100C780010BD04460A2001F049FD204604B010BD0D
:100C8800034670B543F8042B044684B0FA2507C917
:100C980083E80700A1791E23009503AA1A31ADF84D
:100CA8000C3020460223C9B2217400F077FE10B13F
:100CB800012004B070BD0A2001F028FD4FF4B8529D
:100CC80000950223ADF80C20204603AA217C00F0F1
:100CD80065FE0028ECD10A2001F018FD41F20272ED
:100CE80000950223ADF80C20204603AA217C00F0D1
:100CF80055FE0028DCD10A2001F008FD04220095E9
:100D08000223ADF80C20204603AA217C00F046FE01
:100D18000028CDD10A2001F0F9FC06220095022313
:100D2800ADF80C20204603AA217C00F037FE0028ED
:100D3800BED10A2001F0EAFC41F208220095022304
:100D4800ADF80C20204603AA217C00F027FE0028DD
:100D5800AED10A200A2601F0D9FC0095022303AA85
:100D6800217C2046ADF80C6000F018FE00289FD1C9
:100D7800304601F0CBFC23790C220095002B217C16
:100D88008DF80C20204614BF622342236A448DF854
:100D98000D30022300F002FE002889D1304601F010
:100DA800B5FCA36800952046E268217C13432279AC
:100DB800DBB282F0010243EA82136279524202F006
:100DC800200213430E228DF80D3002238DF80C20DB
:100DD80003AA00F0E3FD00287FF46AAF304601F073
:100DE80095FC102200950223ADF80C20204603AA9A
:100DF800217C00F0D3FD00287FF45AAF304601F083
:100E080085FC122100950223ADF80C1003AA217C61
:100E1800204600F0C3FD00287FF44AAF304601F0B9
:100E280075FC012209212046FFF70CFF003818BF86
:100E380001203EE7F0B5214D87B000240126102798
:100E480002A94FF4805228460194CDE90267CDE902
:100E5800046407F0E3FC642002F082F8022302A98C
:100E68004FF48052284602930594CDE9037607F0A3
:100E7800D5FC042302A94FF4805228460397CDE9F4
:100E880004340323029307F0C9FC40F232230422FE
:100E980002A92846019310230496CDE90223019B59
:100EA8004FF48052059307F0B9FC40F60601284636
:100EB80007F0D4FC204607B0F0BD00BF7C05002435
:100EC80070B51F4B88B008221E4E00214FF40064F5
:100ED8001A614FF0020C03920A225E6020260692E5
:100EE8004022054699600320196210215C620124A2
:100EF800C3E905624FF4C072DC60DA6107229FED36
:100F08000E7BCDE900C20422CDE904016946181D13
:100F1800029283ED0A7B07F057FC38B92846FFF7A1
:100F280089FF003818BF012008B070BD204608B0FE
:100F380070BD00BFAFF3008000100000000000008B
:100F480078050024404100525E4A0023F0B5146839
:100F58008FB00A93002C40F0B2805B4B012103262E
:100F68000C2511600227D3F8D420584842F4805247
:100F7800C3F8D420D3F8D42002F480520092009A07
:100F8800D3F8E02042F01002C3F8E020D3F8E020C4
:100F980002F010020192019AD3F8E02042F04002D8
:100FA800C3F8E020D3F8E02002F040020292029A4F
:100FB800D3F8E02042F00802C3F8E020D3F8E0209C
:100FC80002F008020392039AD3F8E02042F48072F8
:100FD800C3F8E020D3F8E02002F480720492049A67
:100FE800D3F8E02042F08002C3F8E020D3F8E020F4
:100FF80002F080020592059AD3F8E02042F0200220
:10100800C3F8E020D3F8E02002F020020692069A06
:10101800D3F8E02042F00402C3F8E0204FF68372D0
:10102800D3F8E0300B9603F004030C9507930223E2
:10103800079908A9CDE9082302F014FF48F23713ED
:1010480008A9234808930C950997CDE90A4602F0A8
:1010580009FF4CF2037308A91E480893CDE90974E7
:10106800CDE90B6502F0FEFE40F2FF6308A91A48BD
:101078000893CDE90974CDE90B6502F0F3FE4FF64C
:101088000C7308A915480893CDE90974CDE90B65D7
:1010980002F0E8FE4FF63F0308A911480893CDE98E
:1010A8000974CDE90B6502F0DDFE202308A90B4881
:1010B80009970C950893CDE90A4602F0D3FE0FB0C4
:1010C800F0BD00BF74050024004402580010025807
:1010D80000180258000C025800200258001C025840
:1010E8000014025830B5184C154685B0046004F158
:1010F800080EEC460FC98EE80F00D4ED047AF5EE21
:10110800C07A8CE80F00F1EE10FA1ADDB7EE006A2B
:1011180094ED057A27EE277AC6EE276A84ED0D7AD4
:10112800C4ED0C6A6DB1204640F8185F01F02AFA48
:10113800064903690020064A2162A262E36005B0FD
:1011480030BD012005B030BDB005002400200030BE
:101158000000003000680830704700BF0068183091
:1011680001F012BA064B302003214FF07E52C3E93A
:101178000201002000211A615A61C3E90601704783
:10118800B005002410B592B00180ADF80410C9B2C2
:10119800149C0B29C460C0E901232FD090F801E00A
:1011A8008446BEF10F0F29D8022A39D0032A04D069
:1011B800A2F10102B2FA82F25209012B0E9205D075
:1011C800A3F10203B3FA83F35B095B00022C0F93CC
:1011D80006D0032C04D0A4F10104B4FA84F4640901
:1011E8000A2910940CD900231846CCF81030012392
:1011F8000DA903FA0EF30D9302F034FE12B010BDE0
:101208005B4B4A1E03EB8123CCF81030092A00F20D
:101218009F80DFE802F08E7F706152433425160705
:101228001122CAE7534B5448D3F8E02042F48062B5
:10123800C3F8E020D3F8E03003F480630C930C9BF0
:10124800D5E74C4B4D48D3F8E02042F40072C3F880
:10125800E020D3F8E03003F400730B930B9BC6E750
:10126800444B4748D3F8E02042F48072C3F8E020AA
:10127800D3F8E03003F480730A930A9BB7E73D4B39
:101288004048D3F8E02042F08002C3F8E020D3F8C9
:10129800E03003F080030993099BA8E7354B3A48EF
:1012A800D3F8E02042F04002C3F8E020D3F8E03061
:1012B80003F040030893089B99E72E4B3348D3F873
:1012C800E02042F02002C3F8E020D3F8E03003F039
:1012D80020030793079B8AE7264B2D48D3F8E02085
:1012E80042F01002C3F8E020D3F8E03003F0100316
:1012F8000693069B7BE71F4B2648D3F8E02042F075
:101308000802C3F8E020D3F8E03003F0080305939F
:10131800059B6CE7174B2048D3F8E02042F0040205
:10132800C3F8E020D3F8E03003F004030493049BEF
:101338005DE7104B1948D3F8E02042F00202C3F8E9
:10134800E020D3F8E03003F002030393039B4EE759
:10135800084B0748D3F8E02042F00102C3F8E02028
:10136800D3F8E03003F001030293029B3FE700BF8C
:10137800000002580044025800280258002402586D
:1013880000200258001C0258001802580014025885
:1013980000100258000C02580008025800040258B5
:1013A80008B5012143780069994089B203F094F89F
:1013B800003818BF012008BD01230A46417800699A
:1013C80003FA01F189B203F08DB800BF8378022BCC
:1013D80030B504468FB039D0032B00F0D180A3F18B
:1013E8000102B2FA82F25209E3780A92012B05D07F
:1013F800A3F10203B3FA83F35B095B0000222046E2
:10140800CDE90B3201F08AFC0546204601F08EFC3E
:1014180023780990082B13D8DFE803F02D40536692
:10142800798C9F051A00574BD3F8E02042F08002D0
:10143800C3F8E020D3F8E03003F080030793079B5C
:1014480009A9284602F00EFD0FB030BD1122CBE7E6
:101458004C4B09A92846D3F8E02042F48072C3F81F
:10146800E020D3F8E03003F480730893089B02F07F
:10147800F9FC0FB030BD434B09A92846D3F8E0204A
:1014880042F00102C3F8E020D3F8E03003F0010392
:101498000093009B02F0E6FC0FB030BD394B09A960
:1014A8002846D3F8E02042F00202C3F8E020D3F83F
:1014B800E03003F002030193019B02F0D3FC0FB06C
:1014C80030BD304B09A92846D3F8E02042F0040289
:1014D800C3F8E020D3F8E03003F004030293029B42
:1014E80002F0C0FC0FB030BD264B09A92846D3F83E
:1014F800E02042F00802C3F8E020D3F8E03003F01F
:1015080008030393039B02F0ADFC0FB030BD1D4BE5
:1015180009A92846D3F8E02042F01002C3F8E020D9
:10152800D3F8E03003F010030493049B02F09AFC14
:101538000FB030BD134B09A92846D3F8E02042F07C
:101548002002C3F8E020D3F8E03003F0200305932D
:10155800059B02F087FC0FB030BD0A4B09A928464D
:10156800D3F8E02042F04002C3F8E020D3F8E0309E
:1015780003F040030693069B02F074FC0FB030BDE5
:101588001A4631E70044025870B506460D4601F088
:10159800C5FB0446304601F0C9FB2A1E0146204619
:1015A80018BF0122BDE8704002F09CBF70B500234F
:1015B80086B0122204460393CDE901230368032B66
:1015C80001D804230493261D0634304601F0A6FBF7
:1015D8000546304601F0AAFB0346694628460093B3
:1015E80002F040FC204601F099FB034620461C46C9
:1015F80001F09CFB694603462046009302F032FC4A
:1016080006B070BD634A0368934210B58CB028D009
:10161800614A934258D0614A934200F09480604AEC
:10162800934201D00CB010BD5E4C5F48D4F8E03056
:1016380043F00203C4F8E030D4F8E03003F00203CA
:101648000A930A9BFFF7B2FFD4F8F43043F0800303
:10165800C4F8F430D4F8F43003F080030B930B9BF8
:10166800E0E7504C5148D4F8E03043F00203C4F8A6
:10167800E030D4F8E03003F002030193019BFFF758
:1016880095FFD4F8E83000221F2043F400131146D8
:10169800C4F8E830D4F8E83003F400130293029B4E
:1016A800D4F8D83043F00103C4F8D830D4F8D8308F
:1016B80003F001030393039B01F07CFC1F200CB093
:1016C800BDE8104001F0B2BC364C3948D4F8E030DF
:1016D80043F08003C4F8E030D4F8E03003F080032E
:1016E8000493049BD4F8E03043F00203C4F8E030DC
:1016F800D4F8E03003F002030593059BFFF756FF8B
:10170800D4F8E8300022212043F480031146C4F8BD
:10171800E830D4F8E83003F480030693069BD4F845
:10172800D83043F00103C4F8D830D4F8D83003F0E7
:1017380001030793079B01F03DFC21200CB0BDE895
:10174800104001F073BC1B48FFF730FF154B002217
:101758004820D3F8E840114644F40004C3F8E840B0
:10176800D3F8E84004F400040894089CD3F8D8405F
:1017780044F00104C3F8D840D3F8D83003F001038B
:101788000993099B01F016FC48200CB0BDE81040F5
:1017980001F04CBC0054004000580040005C004080
:1017A800001C00580044025874080024EC0500246A
:1017B800C40600249C070024F0B5002287B0184B0B
:1017C8001021CDF802206F46CDF806209C46CDF8B2
:1017D8000A206E46CDF80E200CF11805CDF812201F
:1017E8000CF1300EADF81620FF220E4B6C46ADF80A
:1017F80000101A700FCFACE80F0097E803008CE8D0
:1018080003000FCE0FC596E8030085E803000FCC50
:10181800AEE80F0094E803008EE8030007B0F0BDBF
:1018280004000024E805002410B5EFF3108472B614
:10183800074B1A78120602D504B962B610BD1B7898
:10184800D820044A5BB200FB032002F0F7F8F3E764
:10185800E805002400060024014803F0C7BC00BFC7
:1018680078060024014803F0C1BC00BF50070024DB
:10187800014803F0BBBC00BF280800242DE9F04153
:101888000F68D8253C4E84B007FB05F5032F06EBFF
:101898000503036058DCCA680C46012A54D84FD0A7
:1018A80020689C4661684FF0D808A2680DF1100EB8
:1018B800E36808FB0768ACE80F00304B227C8CF823
:1018C8000020D8F808C00FCB0EE90F000EEB8703F5
:1018D800BCF1010F53F8103CC8F88C3042D0BCF171
:1018E800020F35D0BCF1000F08D101F0A3F8244B4A
:1018F80098420CBF234B244BC8F890308C35D82322
:10190800217C002203FB0763012035444900C3E919
:1019180026022846C3F89410C3E92822C3E92A22DC
:1019280003F05CFA80B90146284603F06BFC58B90D
:101938000146284603F090FC003818BF012004E057
:101948000A7C103A672AABD9012004B0BDE8F081BF
:1019580001F070F80A4B98420CBF0C4B0C4BC8F8BE
:101968009030CBE701F066F8054B98420CBF094B65
:10197800094BC8F89030C1E7EC05002448DA0008A4
:10198800000E27075F4390608A62E030200BA010AA
:101998001A0980102D0FB0303211D0202DE9F041F6
:1019A800D0F8008082B00D4617461E4608F18C0418
:1019B800204603F023FC2028FAD1D8F80C3073B95C
:1019C8006D002046089C33463A46A9B2009403F0BD
:1019D8005BFA003818BF012002B0BDE8F081089B0F
:1019E80032463946204603F01BFBF2E7044B10222F
:1019F8001A7483F8E82083F8C02183F89822704786
:101A0800EC05002430B5002395B04FF48071062210
:101A180004460B9306921393CDE90C13CDE90E33CC
:101A2800CDE9113301F008F807282AD004F1100590
:101A380041F2883206A9284604F040FA28B1012369
:101A480084F85C30012015B030BD0223102206A9AD
:101A5800284602920022CDE90033012303934FF474
:101A68008003CDE9042305224FF0807306926A466D
:101A78000F9341F2883304F0B1FB0028DFD115B091
:101A880030BD032384F85C30DCE700BF00000000B1
:101A980070B50023A4B04FF080724FF480750446EF
:101AA800ADF806301B93CDE91E320122CDE91C5357
:101AB800CDE92023CDE92233002942D0F02300F1DB
:101AC800100516AEADF80630C02341F28832314613
:101AD8002846169304F0F2F928B1012384F85C3003
:101AE800012024B070BD41F288320DF1060128466C
:101AF80004F052FA03460028EFD14FF48071052212
:101B0800284601250892102210930D9315930293ED
:101B18000595CDE90E139FED1E7B4FF08071CDE941
:101B28001333119141F2883308A9CDE9035202AA6F
:101B38008DED067B04F052FB0028D2D084F85C506F
:101B4800CEE700F1100516AE612341F28832314626
:101B58002846169304F0B2F90028BED141F2883223
:101B68000DF10601284604F0A5FA0028B5D1BDF804
:101B78000630204623F0780343F04003ADF80630E2
:101B8800FFF740FF00289FD0A7E700BFAFF3008012
:101B980000000000000040002DE9F04F00234FF442
:101BA800807601254FF0807804462DED028BABB08E
:101BB8008DF80730219313931B9322961C95CDF82B
:101BC8009480CDE92333CDE92653CDE92833CDE9F7
:101BD8001463CDE91633CDE9193306230E9300F0CB
:101BE8002BFF072808D004F1100741F288320EA90C
:101BF800384604F063F940B1012384F85C300120D1
:101C08002BB0BDEC028BBDE8F08F02234FF010091A
:101C18004FF0050A08AA0EA938460B95CDF85C8046
:101C2800CDF82890CDF838A09FED298BCDE9083361
:101C380041F288338DED0C8B04F0D0FA0028DBD10B
:101C480041F2883238461CA904F038F90028D3D16B
:101C58004FF0400B41F288320DF1070138468DF8FC
:101C680007B004F099F90028C6D141F288331CA9BD
:101C780002AA3846CDF870A0CDF89480CDE902BB11
:101C8800CDE904958DED068B04F0A8FA03460028EB
:101C9800B2D1139308AA1B930EA938461496CDF80F
:101CA80038A0CDF85C80CDF828900B95CDE9153398
:101CB800CDE91933CDE9083541F288338DED0C8B28
:101CC80004F08CFA00289BD084F85C5097E700BF9A
:101CD80000000000000040002DE9F0435C4CA3B078
:101CE8000E46046000F0A8FE072800F0A4803068C3
:101CF80025467168B26807C5B389284620F8043BB1
:101D0800267B677B04F0BCF8E0B9524B012E4FF0FC
:101D18000108E06123610CBF4FF400034FF4801306
:101D2800C4E9058893FAA3F3B3FA83F34FF48079EF
:101D3800013BC4F82490C4E90B00281D236204F079
:101D480031F838B1012384F85C300126304623B0DD
:101D5800BDE8F08366230B90139041F2883206A900
:101D68000693CDE90C90CDE90E00CDE91100281DB0
:101D780004F0A4F80028E5D1992341F2883206A995
:101D8800281D069304F09AF80028DBD105231C903F
:101D980019906A4614934FF08073219014A91D93EB
:101DA8001023CDF80C80029341F288339FED247BF9
:101DB800CDE91A90CDE91F00CDE90008281D8DED69
:101DC800047B04F00BFA0028BCD131462046FFF70B
:101DD8005FFE0028B6D12046FFF7DEFE0646002843
:101DE800B0D1002FB2D1EB2306AA14A9281D149351
:101DF8004FF44063CDF868901B934FF40053189646
:101E080017934FF440431C93A0231693062319936A
:101E18004FF080539FED0C7B21934FF04073CDE939
:101E28001F661D938DED067B04F066FA00288DD0A1
:101E380084F85C8089E7032384F85C3085E700BF79
:101E4800000000000000400000000000000000004A
:101E580050090024005000522DE9F04F8FB0414B3B
:101E68000024026800AF9A427C63C7E90944C7E9C5
:101E78000B4403D03C37BD46BDE8F08F3A4B40F6E3
:101E880009213A48EA46D3F8D42007F11C0607F19D
:101E9800220B4FF0020942F480424FF00308C3F8C6
:101EA800D420D3F8D42002F48042BA60BA68D3F8B8
:101EB800E02042F04002C3F8E020D3F8E02002F02E
:101EC8004002FA60FA68D3F8E02042F02002C3F832
:101ED800E020D3F8E02002F020023A613A69D3F812
:101EE800E02042F01002C3F8E020D3F8E02002F02E
:101EF80010027A617A69D3F8E02042F00202C3F84E
:101F0800E020D3F8E030F86103F002033984BB61C4
:101F1800174B7B60BB697B6853F8040F7B6000F04C
:101F2800FDFE7B680546186800F000FF16F8013BC7
:101F3800786207F124012846C7F830807B63C7E937
:101F48000A9401F08FFF5E45E5D100225C2011461E
:101F580001F030F85C2001F069F83C37D546BD4601
:101F6800BDE8F08F00500052004402580A0A0909DF
:101F7800AC090024114B02689A4200D07047104AFD
:101F880070B5D2F8D4300F4C23F4804304F118060E
:101F9800C2F8D43054F8040F00F0C0FE054620689B
:101FA80000F0C4FE0146284602F06AF9B442F1D1B5
:101FB8005C20BDE8704001F047B800BF00500052F7
:101FC80000440258AC090024014804F023BA00BFB9
:101FD80060090024084B1A1D981D03F1080110B46C
:101FE8009C1C9A6603F10A02C3E91834C3E91B0171
:101FF8005DF8044B5A677047500900242DE9F043F7
:10200800821D05468BB0031D05F10A010830CDE994
:10201800052305F10C02AB69CDE907010992002BF4
:102028003ED0EB69B3FA83F84FEA5818012302222D
:1020380005AE0AAF4FF006090393CDE9012313E07B
:102048002B680BB3012B02D122B30A230493204639
:1020580000F06CFE03462046009300F05FFE6946E0
:1020680001F000FFBE4212D056F8044B2B792278BB
:102078009342E5D1697963789942E1D1B8F1000FCB
:10208800F0D02B68002BDDD1CDF81090DFE70BB036
:10209800BDE8F0836378022B0CBF08230A23D5E739
:1020A8004FF00108C2E700BFA04A0368934270B529
:1020B80005468AB07FD0203293427CD09C4A934216
:1020C80004D02032934201D00AB070BD994C9A488E
:1020D800D4F8E03043F00103C4F8E030D4F8E0303D
:1020E80003F001030593059BD4F8E03043F008039F
:1020F800C4F8E030D4F8E03003F008030693069BF8
:10210800D4F8E03043F04003C4F8E030D4F8E030CD
:1021180003F040030793079BD4F8F03043F400031F
:10212800C4F8F030D4F8F03003F400030893089BA7
:10213800FFF764FFD4F8D820804B42F001022968E9
:10214800D3F85C02C4F8D820D4F8D82002F00102F1
:102158000992774A099C914200F0AB80D3F880221B
:10216800013A18BF01229201002840F0CC8074483F
:10217800582103F22C4403F54775C3F82C040023B7
:102188002046C4E901124FF480524FF48061636223
:1021980062614FF48042C4E903314FF48073C4E9AB
:1021A80006234FF40033236201F0B6F8002800F04C
:1021B8009580FFBEFEE75F4C604ED4F8E0303046B5
:1021C80043F00103C4F8E030D4F8E03003F0010331
:1021D8000093009BD4F8E03043F01003C4F8E030DB
:1021E800D4F8E03003F010030193019BD4F8E030F9
:1021F80043F04003C4F8E030D4F8E03003F0400383
:102208000293029BD4F8F03043F48003C4F8F03012
:10221800D4F8F03003F480030393039BFFF7EEFE3A
:10222800D4F8D830296843F00103404A3068C4F82C
:10223800D8309142D4F8D83003F001030493049BBA
:1022480027D0736A013B18BF01239B01002852D194
:102258003B4A06F5E8745821C036C6F8102100221A
:102268002046C4E901134FF480534FF48061626241
:1022780063614FF48073C4E903214FF48042C4E9D9
:1022880006234FF40033236201F046F808B3FFBE7B
:10229800FEE7336A013B18BF01239B0118BB02F517
:1022A800284206F5AC74572128360C32C6F830217E
:1022B800D5E7D3F87C22013A18BF0122920158BB16
:1022C8002048572103F56D7403F52175C3F8B4034D
:1022D80055E7C6E92044A6630AB070BDC5E92044A5
:1022E800A5630AB070BD184A06F5AC7459212836A2
:1022F800C6F83021B3E7154A06F5E8745A21C03606
:10230800C6F81021ABE711485A2103F22C4403F513
:102318004775C3F82C0432E70B48592103F56D744F
:1023280003F52175C3F8B40329E700BF0458014039
:10233800045C014000440258240C0024C80900240D
:10234800280002401000024058000240700002407D
:10235800014801F073BB00BF200B0024014801F0C5
:102368006DBB00BF980B0024014801F067BB00BF9C
:102378007C0D0024014801F061BB00BFF40D00246E
:102388002DE9F04F0C684FF41777794E87B004FBAE
:1023980007F7012C06EB0708C0F8008000F39F80C0
:1023A8004FF0000907F512730D468E4646F8039064
:1023B8003344C446C3F80490C8F8509268A3D3E9DC
:1023C800002369A1D1E90001CDE9022306AB03EBA3
:1023D8008403CDE9040153F810BC53F808ACBEE8F7
:1023E8000F00ACE80F00BEE80F00ACE80F009EE855
:1023F8000300C8F828B0C8F8C0A08CE803002B690F
:10240800042B0DD8DFE803F07F89930376004FF49F
:1024180017734BF6803203FB04639A64C3F8E02019
:10242800AA69296A002A56D000294FF0010214BF70
:10243800032102214FF4177303FB0463C3E90B1252
:10244800EA69696A002A4ED1003918BF01214FF4A0
:10245800177303FB0463C3E931126B69022B06D8B7
:10246800444A12F80390444A52F8233001934FF437
:1024780017730022414907F1280004FB03F3304495
:1024880003F1380E03F1500C03F1D00503F1E80411
:1024980041F80E2033448E44CEF804205A645A631F
:1024A80041F80C208C44CCF80420DA654A510D44DC
:1024B8006A60C3F8DC20C3F8CC200A510C440199A7
:1024C8006260C3F8F42002234A4606F0CFF80028D9
:1024D80037D0FFBEFEE7003918BF0121AAE7012067
:1024E80007B0BDE8F08F00294FF0010214BF0321A7
:1024F8000221ACE74FF41773214A03FB04639A6483
:10250800C3F8E0208CE74FF417734FF4FA5203FB3B
:1025180004639A64C3F8E02082E74FF417734FF41A
:102528007A5203FB04639A64C3F8E02078E74FF417
:1025380017734FF4FA4203FB04639A64C3F8E0206C
:102548006EE707F1C00002234A460199304406F0BD
:102558008DF80028C4D0FFBEFEE700BFAFF30080AF
:1025680004580140045C014024580140245C0140A7
:10257800C8090024A0DA000894DA0008CC0900246D
:10258800007701000068704703681B69042B05D8B1
:10259800044A02EB830393ED000A70479FED020A99
:1025A800704700BF80DA000800803B47704700BFD3
:1025B80008B500F0C3FCBDE8084000F0BFBD00BF8F
:1025C800064808B503680BB101F090FF044803689A
:1025D8001BB1BDE8084002F06BBE08BD9012002494
:1025E800880E0024064808B503680BB101F07EFF89
:1025F800044803681BB1BDE8084002F059BE08BD95
:1026080090120024880E0024064808B503680BB110
:1026180001F06CFF044803681BB1BDE8084002F0F4
:1026280047BE08BD90120024880E0024364BDA6A93
:10263800520062D59A6A9A6A9A6A9B6A180600D505
:1026480000BE314B9B6A990600D500BE2E4B9B6A93
:10265800DA0600D500BE2C4B9B6A1B0700D500BECE
:10266800294B9B6A980700D500BE274B9B6AD90760
:1026780000D500BE244B9B6A1A0400D500BE224B2D
:102688009B6A9B0400D500BE1F4B9B6AD80400D5EB
:1026980000BE1D4B9B6A190500D500BE1A4B9B6AEC
:1026A8005A0500D500BE184B9B6A9B0500D500BE95
:1026B800154B9B6AD80500D500BE134B9B6A990140
:1026C80000D500BE104B9B6ADA0100D500BE0E4B48
:1026D8009B6A1B0300D500BE0B4B9B6A580300D5B1
:1026E80000BE094B9B6A990300D500BE064B9B6A46
:1026F800DA0306D400BE00BEFEE7DB6A9B07FAD504
:10270800F8E700BEF6E700BF00ED00E000F028BCE7
:102718000A4B9B6803F17843B3F5003F0BD3084B92
:10272800986848B19868012806D09868022803D0AC
:102738009868032070470120704700BF00ED00E053
:10274800000080382DE9F041CEB004464C2200212B
:102758000AA8FDF709FE2022002102A8FDF704FEC1
:10276800BC2200211EA8FDF7FFFD022003F028FA75
:102778002368012B4FF0000350D0504A02250193E3
:10278800C820D16A4E4B21F00101D162D26A02F011
:10279800010201929A6942F440429A619B6903F4EA
:1027A80040430193019B464A93699904FCD54549E6
:1027B8000224002201268B6A4FF00408082723F020
:1027C800030323438B62052316900AA818934FF43A
:1027D8008033109617941994CDF854801A97CDE940
:1027E8001B222122CDE91344CDE90A2303F01AFF65
:1027F80000B1FEE7402329463F224FF48065099344
:10280800049002A805970895CDE906330323CDE97E
:10281800022304F021FA0346B8B1FEE7284A04254A
:102828000093F0209169254B41F4404191619269F0
:1028380002F440420092DA6A42F00102DA62DB6A8C
:1028480003F001030093009BADE74FF480324FF48F
:10285800805122941EA846922F94339406243591D1
:102868002197CDF8A8802C951F962396CDE9253180
:10287800CDE93032CDE92D3300224FF48071CDE916
:102888003B334FF4401343911021CDE93E2340F2EE
:10289800271280232991249334930C23CDE92742CE
:1028A800202220932B92084A1E9204F01FFC00B1AC
:1028B800FEE703F0ABF94EB0BDE8F0810004005824
:1028C80000480258004402580F130F0370B584B033
:1028D800012400F0E1FB4FF480764FF04052194B91
:1028E8006846ADF80040019200250293039600F077
:1028F800F1FB192368468DF80F408DF808304FF02A
:102908004043ADF80D6001938DF801408DF80A50F1
:1029180000F0E0FB02230B2268468DF80F508DF87B
:1029280001304FF062538DF808200193ADF80D4047
:102938008DF80A4000F0CEFB042000F0BBFB04B089
:1029480070BD00BF0E00010330B50C46054685B0CA
:10295800D1E9000185E8030000F0C0FAA379A3B328
:1029680009F0E4F8FEF728FF07F06EFD08F0CAFD4D
:1029780023798BBB63799BB1BFF34F8FBFF36F8F05
:102988002A4B0022C3F85022BFF34F8FBFF36F8F3B
:102998005A6942F400325A61BFF34F8FBFF36F8F09
:1029A8004FF0FF3200230024002569462048029298
:1029B8008DF80C30CDE9004508F040F91C4808F0C6
:1029C800A5F907F0B5F905B030BD2846FFF7BAFEFE
:1029D8002846FFF77BFFC3E714490023C1F884307A
:1029E800BFF34F8FD1F8805043F6E07EC5F34E3CDD
:1029F800C5F3C9054FEA4C1C0CEA0E002B4640EA09
:102A08008372013BC1F860225A1CF8D1ACF1200C4A
:102A18001CF1200FF0D1BFF34F8F4B6943F4803383
:102A28004B61BFF34F8FBFF36F8FA3E700ED00E05B
:102A3800800E002404F042BA1C4B9B6803F17842D4
:102A4800B2F5003F25D3B3F5803F20D303F16042B0
:102A5800B2F5003F1FD303F15C42B2F5002F1CD33F
:102A680003F17042B2F5902F19D303F14842B2F541
:102A7800803F16D303F18042B2F1806F13D303F184
:102A8800E043B3F5000F34BF07200820704701204A
:102A980070470020704702207047032070470420C9
:102AA8007047052070470620704700BF00ED00E022
:102AB80003480023034A044903600AF0BBBF00BF70
:102AC800800E002400000024B525000810B4204C16
:102AD8000022204B83B0D4F888001F4940F47000CE
:102AE800C4F8880018681D4C40F0010018601A618D
:102AF8001868014019609A61DA611A629A62DA62AA
:102B08001A635A639A63DA631A645A64196821F477
:102B1800802119601A66D3F8DC2042F06042C3F8BD
:102B2800DC20D3F8DC300193019B23686FF30F039B
:102B3800B3F1005F03D20A4B0122C3F80821044B0A
:102B48004FF000629A6003B05DF8044B704700BF15
:102B580000ED00E0004402587FEDF6EA0010005C4A
:102B68000080005100F57171D0F8040406F0DEBC55
:102B7800C1EBC10300EB8303D0F80404D3F80822A7
:102B880006F002BDC1EBC10300EB8303D0F80404D7
:102B98009A6C06F033BD00BFD0F8040406F0CEBD31
:102BA800C16810B5044619B1022900D0FEE7012119
:102BB800D4F8040406F0ACFDD4F80404BDE81040D1
:102BC80006F07EBD10B50446D0F8040406F0A4FD56
:102BD8002268D2F8003E43F00103C2F8003E236A9F
:102BE80023B1034A136943F00603136110BD00BF04
:102BF80000ED00E0D0F8040406F098BDD0F8040415
:102C080006F0ACBDD0F8040406F0A6BDD0F8040464
:102C180006F0A6BDD0F8040406F0A4BD9446D0F88A
:102C280098021A4608B5634602F0BAFE18B102289F
:102C38000CBF0120022008BD08B5D0F8980202F0A8
:102C48003DFF18B102280CBF0120022008BD00BFBB
:102C580008B5D0F8980202F075FF18B102280CBF29
:102C68000120022008BD00BF0A06D0F8983206D419
:102C7800C1EBC10103EB810393F8FE01704701F03A
:102C88007F01C1EBC10103EB810393F83E0070475C
:102C980008B5D0F8980202F06DFE18B102280CBFF2
:102CA8000120022008BD00BF08B5D0F8980202F044
:102CB800DDFE18B102280CBF0120022008BD00BFAC
:102CC80008B5D0F8980202F0A9FE18B102280CBF86
:102CD8000120022008BD00BFD0F8C00206F0E2BF04
:102CE800D0F8C00206F0F6BFD0F8C00206F0FEBF6A
:102CF800704700BFD0F8C00206F0E4BFD0F8C002A9
:102D080006F0E4BF08B5D0F8D00301F0A1FF18B170
:102D180002280CBF0120022008BD00BF024B027828
:102D280053F82200704700BFD4DA0008024B4278FB
:102D380033F81200704700BFB4DA00088CB00A28D4
:102D480014D8DFE800F023313F4D5B69778593069F
:102D580015004D4BD3F8E02042F40072C3F8E02090
:102D6800D3F8E03003F400730A930A9B0CB0704761
:102D7800454BD3F8E02042F48062C3F8E020D3F852
:102D8800E03003F480630B930B9BEFE73E4BD3F8E3
:102D9800E02042F00102C3F8E020D3F8E03003F06D
:102DA80001030193019BE1E7374BD3F8E02042F0A0
:102DB8000202C3F8E020D3F8E03003F002030293E4
:102DC800029BD3E7304BD3F8E02042F00402C3F86B
:102DD800E020D3F8E03003F004030393039BC5E736
:102DE800294BD3F8E02042F00802C3F8E020D3F8DA
:102DF800E03003F008030493049BB7E7224BD3F8B1
:102E0800E02042F01002C3F8E020D3F8E03003F0ED
:102E180010030593059BA9E71B4BD3F8E02042F06C
:102E28002002C3F8E020D3F8E03003F02003069333
:102E3800069B9BE7144BD3F8E02042F04002C3F80E
:102E4800E020D3F8E03003F040030793079B8DE7B9
:102E58000D4BD3F8E02042F08002C3F8E020D3F80D
:102E6800E03003F080030893089B7FE7064BD3F814
:102E7800E02042F48072C3F8E020D3F8E03003F495
:102E880080730993099B71E700440258704700BF9B
:102E98000F4B1B780BB90120704710B504464FF44F
:102EA8007A700C4AB0FBF3F31068B0FBF3F000F053
:102EB800DDF80F2C00D808B1012010BD00222146F2
:102EC8004FF0FF3000F076F8034B00201C6010BD77
:102ED80054000024500000245800002438B5032072
:102EE800124D00F055F8124C03F028FE114A124911
:102EF8009369C3F30323CB5C03F01F0320FA03F3A6
:102F08000E202B60926902F00F028A5C02F01F0209
:102F1800D3402360FFF7BCFF10B10124204638BD21
:102F28000446FFF7B3FF204638BD00BF5000002419
:102F38004C00002400440258A4DA0008034A044B59
:102F480011681B780B441360704700BF54150024A8
:102F580054000024014B1868704700BF5415002422
:102F680038B50446FFF7F6FF0546631C02D0044B4C
:102F78001B781C44FFF7EEFF401BA042FAD338BD74
:102F880054000024014B1868000C70470010005CC6
:102F980006494FF6FF0C0002054BCA6800F4E060D2
:102FA80002EA0C0210430343CB60704700ED00E0D7
:102FB8000000FA051A4BDB68C3F3022300B5C3F11E
:102FC800070E03F1040CBEF1040F28BF4FF0040EE6
:102FD800BCF1060F1AD9A3F1030C4FF0FF3303FA23
:102FE8000CF322EA03024FF0FF33002803FA0EF332
:102FF80021EA030303FA0CF343EA02034FEA03133B
:10300800DBB206DB074A13545DF804FB0022944642
:10301800E9E700F00F00044A13545DF804FB00BF11
:1030280000ED00E000E400E014ED00E0002807DB1C
:1030380000F01F0101234009024A8B4042F820306A
:10304800704700BF00E100E000280CDB43090122C3
:1030580000F01F0004492033824041F82320BFF3C9
:103068004F8FBFF36F8F704700E100E0431EB3F14D
:10307800807F01D3012070474FF0E02200200549EE
:103088004FF0F00C5361072381F823C0906113615E
:10309800704700BF00ED00E0BFF35F8F044B0021D5
:1030A8005A6A22F480325A62C3F89410704700BFFB
:1030B80000ED00E0064B40F00100C3F894005A6AA6
:1030C80042F480325A62BFF34F8FBFF36F8F70475D
:1030D80000ED00E0174A4378C2F89830017821B330
:1030E800436800B5C2F89C30C37A90F80CC01B0640
:1030F80090F80FE043EA0C7390F80AC00B43817B09
:1031080043EACC4390F80DC043EA8C4390F809C0D9
:1031180043EA4143017A43EA0E4343EA0C2343EA74
:103128004103C2F8A0305DF804FBC2F89C10C2F855
:10313800A010704700ED00E0704700BF08B5FFF72A
:10314800FBFF08BD3649024603688B4233D018316D
:10315800591AB1FA81F1490969BB324883423ED014
:10316800183083423ED01830834234D0183083421E
:103178003BD0183083423ED0183083422AD000F525
:103188005670834235D028498B4231D018318B4252
:1031980034D018318B4234D018318B4234D01831A6
:1031A8008B4234D018318B4234D018318B4234D012
:1031B80023F0FF0011E0DBB21C491D48103BA1FBC6
:1031C800031310B41B091B4CE15C5DF8044BC2E906
:1031D8001601704716211848D1659065704710216F
:1031E8001348F9E716211248F6E706211248F3E7D3
:1031F80006211248F0E710210F48EDE710210F488B
:10320800EAE716210D48E7E700210D48E4E7062123
:103218000B48E1E710210A48DEE716210848DBE7FA
:10322800100002404000024028040240ABAAAAAAAB
:103238000000024004DB00080400024000040240D1
:10324800040402400268284B284930B4284D294C10
:10325800AA4218BF9A420CBF012300238A4208BF22
:1032680043F001032831A24208BF43F00103283488
:103278008A4208BF43F001032831A24208BF43F045
:1032880001038A4208BF43F00103D1B213B91A4BB4
:103298009A4211D1A1F10803184C194A0121A4FB43
:1032A8000343184C1D0902EB1313A9409B008166C8
:1032B800C0E9183430BC7047A1F110031249134C0F
:1032C8001144A4FB0343A8294FEA131308D903F0B8
:1032D8001F040F4A01211A44A1400E4C9300E6E74F
:1032E80008331C46F5E700BF08540258305402580A
:1032F8001C5402584454025894540258CDCCCCCC97
:103308000096001680580258F0FBFDBFABAAAAAA87
:10331800008200108008024070B50546FFF71AFECB
:10332800002D00F0A9802B680446904A90498B42F2
:1033380018BF934201F118010CBF012200228B42F1
:1033480008BF42F0010218318B4208BF42F0010267
:1033580018318B4208BF42F0010218318B4208BF76
:1033680042F0010218318B4208BF42F001021831C5
:103378008B4208BF42F0010201F556718B4208BF2B
:1033880042F0010218318B4208BF42F001021831A5
:103398008B4208BF42F0010218318B4208BF42F04D
:1033A800010218318B4208BF42F0010218318B42EA
:1033B80008BF42F0010218318B4208BF42F00102F7
:1033C8001AB96C4A934240F0E3800222002185F842
:1033D800352085F834101A6822F001021A6005E0D9
:1033E800FFF7B8FD031B052B41D82B681A68D107D6
:1033F800F6D4D5E9022429692243A8691C680A433E
:1034080069690A43E96902430A435B4921402C6A16
:1034180022430A43696A042930D01A605A6922F0A3
:103428000702114359612846FFF78CFEEA6D3F23D6
:1034380002F01F02934083602846FFF703FFAB6842
:10344800802B6ED06B68A86ED9B2013BD5E91842C3
:10345800072B216050602ED90023C5E91B336B6709
:10346800002301226B65184685F8352070BD20229F
:1034780003236A6585F83530012070BDD5E90B4115
:1034880021431143AA6A1960596921F007011143C0
:1034980041F00401002CC5D000284AD1012A5FD090
:1034A80032F00202BED1E201BCD5402201236A6596
:1034B80085F83530E0E72A68481E304B304CA24288
:1034C80018BF9A4204F114040CBF01230023A2423E
:1034D80008BF43F001031434A24208BF43F00103BC
:1034E8001434A24208BF43F001031434A24208BFB7
:1034F80043F001031434A24208BF43F001031BB98F
:10350800204B9A4240F09E801F4A204C0A44920069
:10351800012300218340C5E91B246B6711606360A8
:103528009EE70023A96ED5E918026B60036051601D
:1035380092E7B0F5005F04D0022AB6D9032AB2D0C8
:1035480070E7032A3FF66EAF01A050F822F000BFE3
:10355800B3340008AF340008B334000869350008F4
:10356800B4F1C07F7FF45EAF9FE700BF1000024058
:1035780028000240B80402403F8010FE0854025858
:103588001C540258945402583F9600164059025849
:10359800334A34483449834218BF934200F1280023
:1035A8000CBF012200228B4208BF42F001022831E1
:1035B800834208BF42F0010228308B4208BF42F024
:1035C80001022831834208BF42F001028B4208BF42
:1035D80042F0010212B9254A93423AD10020022151
:1035E800AA6885F8340085F83510402A1C686FF3FE
:1035F80010142CD0A2F18002B2FA82F2520991037F
:10360800EE69D5E9032010436A691043AA6910439B
:10361800174A30432E6A1A4444EA161444EAD00082
:1036280001431448A0FB02022846196013099B00B5
:10363800EB65FFF787FDE96D012201F01F018A4064
:103648004260F9E60C4A0D4C0A44920060E71021EA
:10365800D6E7402203236A6585F835300CE700BFBA
:10366800085402581C5402583054025894540258B2
:10367800F8ABFDA7CDCCCCCC3F820010400902406E
:10368800002800F0D3802DE9F04F90F8344083B043
:10369800012C00F0C780012480F8344090F83540B0
:1036A800012C09D000224FF4006380F834204365D0
:1036B800012003B0BDE8F08F02248C4D8C4E80F8B9
:1036C800354000248B4F44650468DFF83492B442D7
:1036D80018BFAC4206F11806D0F858E00CBF012517
:1036E8000025B44208BF45F0010506F55676B442F8
:1036F80008BF45F001051836B44208BF45F001057A
:103708001836B44208BF45F001051836B44208BF60
:1037180045F001051836B44208BF45F001051836D2
:10372800B44208BF45F00105A6F58666BC4218BF3D
:10373800B44206F58966C76E0CBF4FF001084FF01A
:103748000008B44208BF45F00105A6F58666B442F4
:1037580008BF48F0010806F58966B44208BF45F07D
:103768000105A6F59266B44218BF4C4545EA080C17
:1037780001950CBF01250025D0E919AB009502D0B1
:10378800BCF1000F54D0D4F8009029F00109C4F816
:103798000090CAF804B03FB1D0E91C566E60009D95
:1037A80015B9BCF1000F4DD0C56D4FF03F0905F0BC
:1037B8001F0A09FA0AF9CEF80890D4F800E02EF4A6
:1037C800802EC4F800E063608368402B27D0A16096
:1037D800E260009B13B9B8F1000F7ED0236823F094
:1037E8001E0343F016032360036C1BB1236843F0E8
:1037F80008032360036E1A68D20303D51A6842F4DB
:1038080080721A601FB13B6843F480733B60236881
:10381800002043F00103236003B0BDE8F08FA260ED
:10382800E160D6E7022003B0BDE8F08F01207047C1
:10383800256825F001052560CAF804B017B1D0E95C
:103848001C566E602C4DDFF8BC80444518BFAC4256
:1038580008F114080CBF01250025444508BF45F0B0
:10386800010508F11408444508BF45F0010508F1B1
:103878001408444508BF45F0010508F114084445FB
:1038880008BF45F0010508F11408444508BF45F094
:10389800010515B9194DAC420DD1C56D05F01F08CC
:1038A800012505FA08F5CEF8045063608368402BBB
:1038B80018D0A160E2602268016C22F00E02036E4B
:1038C80042F00A022260002995D0226842F00402E0
:1038D80022601A68D10391D494E7019B002B7FF4EE
:1038E8007DAFE8E7A260E160E5E700BF880002403D
:1038F800A000024040000240085402589454025864
:10390800100002401C540258002862D038B590F8C4
:103918003530022B59D10268444B454C4549A242E7
:1039280018BF9A4204F130040CBF012300238A42D5
:1039380008BF43F001033031A24208BF43F001033E
:1039480030348A4208BF43F001033031A24208BF35
:1039580043F0010330348A4208BF43F0010301F504
:103968005C71A24208BF43F0010304F55C748A420B
:1039780008BF43F001033031A24208BF43F00103FE
:1039880030348A4208BF43F001033031A24208BFF5
:1039980043F0010330348A4208BF43F00103303159
:1039A800A24208BF43F001038A4208BF43F0010363
:1039B80013B9214B9A420ED1042380F8353013688D
:1039C80023F001031360002038BD802343650120E4
:1039D80038BD012070471368046E23F00E03C16DD3
:1039E800856D136001F01F01136823F00103136054
:1039F800012322688B4022F4807222606B60C36EC0
:103A0800D0E91921516033B11A68D0E91C1422F4A5
:103A180080721A604C6000210122036D80F8341016
:103A280080F83520002BCED09847CCE71000024014
:103A38002800024040000240B8040240F0B50022CD
:103A4800944B83B0856D07461E680192924B0268BD
:103A580092482C68824218BF9A4200F118002968DF
:103A68000CBF01230023824208BF43F00103183032
:103A7800824208BF43F001031830824208BF43F076
:103A880001031830824208BF43F001031830824214
:103A980008BF43F001031830824208BF43F0010316
:103AA80000F55670824208BF43F001031830824285
:103AB80008BF43F001031830824208BF43F00103F6
:103AC8001830824208BF43F001031830824208BF11
:103AD80043F001031830824208BF43F00103183055
:103AE800824208BF43F001031BB96D4B9A4240F074
:103AF8002F81FB6D082103F01F03994021420BD051
:103B08001068400708D5106820F004001060A9600C
:103B1800796D41F00101796524FA03F1C80709D5E7
:103B28005169090606D501219940A960796D41F0CE
:103B38000201796504219940214207D01068800765
:103B480004D5A960796D41F0040179651021994087
:103B5800214200F0B0801068000740F1AC80A960F5
:103B6800116811F4802F116840F09E80C90503D4B4
:103B7800116821F008011160396C002900F09B8060
:103B880038468847FB6D202103F01F0399402142E6
:103B980053D03A684048414CA24218BF824204F1CF
:103BA80018040CBF01200020A24208BF40F0010009
:103BB8001834A24208BF40F001001834A24208BFDE
:103BC80040F001001834A24208BF40F00100183448
:103BD800A24208BF40F001001834A24208BF40F0DA
:103BE800010004F55674A24208BF40F001001834E1
:103BF800A24208BF40F001001834A24208BF40F0BA
:103C080001001834A24208BF40F001001834A24253
:103C180008BF40F001001834A24208BF40F001007C
:103C28001834A24208BF40F00100002847D11C48C0
:103C3800824244D01068800744D47B6D002B70D03A
:103C48007B6DDC071ED53A68042187F835101549C5
:103C58001368A1FB066123F00103890A136002E0DF
:103C68001368D80704D5019B01338B420193F7D918
:103C7800002387F834301368DB074CBF0323012384
:103C880087F83530FB6C002B4BD0384603B0BDE8C5
:103C9800F04018475000002410000240280002405D
:103CA800B8040240B5814E1B08037FF565AFB96CB7
:103CB80000297FF465AF202199400C42BDD01068DF
:103CC800C406BAD5A96097F8351004290ED0136830
:103CD80013F4802F136826D01D0331D5FB6B002BFE
:103CE800ABD0384698477B6DDBB1A9E7116821F066
:103CF80016011160516921F080015161396C19B3C5
:103D0800116821F0080111603F22002102FA03F333
:103D18000122AB603B6D87F8341087F83520002B03
:103D2800B3D103B0F0BD13F48073D7D1116821F07B
:103D380010011160012287F8343087F83520CDE76B
:103D48007B6C002BCDD178E7B96C0029D8D1DBE7A3
:103D5800404B4148824218BF9A4200F114000CBF00
:103D680001230023824208BF43F00103143082423A
:103D780008BF43F001031430824208BF43F0010337
:103D88001430824208BF43F001031430824208BF56
:103D980043F0010313B9314B9A42C2D1F86D0424A0
:103DA800136800F01F0084400C420BD05E0709D551
:103DB80019046C6032D5DA0336D4BB6C002B7FF45F
:103DC80064AFAEE7022484400C420BD09E0709D5AD
:103DD80019046C602DD5DA0337D47B6C002B7FF483
:103DE80054AF9EE7082484400C429AD01B0798D50C
:103DF8001368002123F00E0313600123FA6C03FA01
:103E080000F068607B6587F8341087F83530002A41
:103E180087D0384603B0BDE8F04010479B0603D46E
:103E2800136823F0040313603B6C002B7FF42DAF61
:103E380077E713F0200308D11168012021F00A0167
:103E4800116087F8343087F83500FB6B002B7FF45E
:103E58001CAF66E7085402581C5402589454025880
:103E6800406D70470B68002B00F0ED81824A90424C
:103E78004FF000022DE9F04F85B000F0F8804FF0C8
:103E880001084FF0B04E42E04FEAD20C02F00705AD
:103E98000F694FF00F0A00EB8C0CAD00DCF8209096
:103EA800AF400AFA05F529EA05054FF003092F4343
:103EB80004F00305CCF820705700D0F800C009FAC8
:103EC80007F9BD402CEA090C6FEA090B45EA0C0515
:103ED80005608D6805FA07FCD0F808902409CD68BC
:103EE80009EA0B09944005FA07F747EA09078760CA
:103EF800476827EA060634434460C46804EA0B04AA
:103F080044EA0C04C460013233FA02F479D008FAA6
:103F180002F616EA0309F6D04C6824F01005022DC3
:103F2800B2D057004FF0030C05F1FF3AD0F800B0BB
:103F38000CFA07FC04F00305BAF1010F2BEA0C0B8D
:103F480005FA07F545EA0B056FEA0C0B05608D6865
:103F580005FA07FCC0D9C6680BEA060545EA0C0550
:103F6800C560E500CFD5454E22F003074FF00F0C92
:103F7800D6F8F45007F1B04745F0020507F5806719
:103F8800C6F8F450D6F8F45002F0030605F002051E
:103F9800B60003950CFA06FC039DBD6825EA0C0AD9
:103FA800374DA8425ED0374DA8422DD0DFF8D8C093
:103FB800604500F04281DFF8D4C0604500F04481DC
:103FC800DFF8CCC0604500F03181DFF8C8C060453B
:103FD80000F04181DFF8C0C0604500F04381DFF8A0
:103FE800BCC0604500F04581DFF8B4C060450CBF37
:103FF8004FF0090C4FF00A0C0CFA06F64AEA0605CF
:1040080008E005B0BDE8F08F4FF0020C0CFA06F698
:104018004AEA0605BD606FEA0906DEF88050E70344
:1040280054BF354049EA0505A703CEF88050DEF8AD
:10403800845054BF354049EA0505E702CEF884505C
:10404800DEF8005054BF354049EA0505A402CEF811
:104058000050DEF8045054BF354049EA0505CEF853
:10406800045050E708FA06F64AEA0605D2E7DFF8F0
:104078000CB04FF0B0467BE00000025800440258F4
:104088000004025800080258000C02580010025898
:104098000014025800180258001C02580020025848
:1040A800002402580CF1FF374FEA420ED0F800A066
:1040B80004F003080197032708FA0EF807FA0EFC24
:1040C8002AEA0C0A6FEA0C0C48EA0A08C0F80080D1
:1040D8008F6807FA0EF8019F012F40F28180C568AA
:1040E80005EA0C0545EA0805C560E5003BD5DBF89F
:1040F800F45022F0030C0F2745F002050CF1B04CE8
:10410800CBF8F4500CF5806CDBF8F45005F00205A0
:104118000395039D02F00305DCF808E0AD0007FAFB
:1041280005F5E7032EEA0505CCF808506FEA090CF7
:10413800D6F8805077D405EA0C05A703C6F8805056
:10414800D6F884506CD40CEA0505E702C6F884500A
:10415800356862D40CEA0505A7023560756859D43C
:104168000CEA05057560013233FA02F43FF449AFF1
:10417800012404FA02F513EA0509F4D04C6824F086
:10418800100CBCF1020F8DD102F0070C0F694FEA39
:10419800D20E4FEA8C0C00EB8E0E07FA0CF90F27A3
:1041A800DEF8208007FA0CFC032728EA0C0849EA05
:1041B8000808CEF820804FEA420ED0F8009004F0AC
:1041C800030807FA0EFC08FA0EF829EA0C096FEA48
:1041D8000C0C48EA0908C0F800808F6807FA0EF846
:1041E800D0F808902409CF6809EA0C09944007FA26
:1041F8000EFE4EEA090EC0F808E0D0F804E02EEAF8
:1042080005052C434460C46804EA0C0444EA080425
:10421800C460A8E749EA0505A4E749EA05059BE75C
:1042280049EA050591E749EA050586E74FF0050CD7
:104238000CFA06F64AEA0605ECE6032505FA06F640
:104248004AEA0605E6E670474FF0040C0CFA06F653
:104258004AEA0605DEE64FF0060C0CFA06F64AEACC
:104268000605D7E64FF0070C0CFA06F64AEA0605EB
:10427800D0E64FF0080C0CFA06F64AEA0605C9E63D
:10428800002900F00881894B98422DE9F04F00F091
:104298009A8000234FF00F094FF0030A4FF0B04601
:1042A80001229A4012EA010E77D023F0030503F0A9
:1042B80003047F4F05F1B045E400B84209FA04F859
:1042C800D5F808C405F5806508EA0C0C27D0794FA5
:1042D800B8426ED0784FB84270D0784FB84263D0A9
:1042E800DFF8E0B1584500F0D180DFF8DCB158457F
:1042F80000F0D280DFF8D4B1584500F0C280DFF872
:10430800D0B1584500F0CD80DFF8C8B158450CBF92
:104318004FF0090B4FF00A0B0BFA04F402E00127E7
:1043280007FA04F4A44517D1AC6824EA0804AC6081
:10433800D6F8804024EA0E04C6F88040D6F88440B7
:1043480024EA0E04C6F88440346824EA0E04346073
:10435800746824EA0E0474605D0004684FEAD30CA4
:104368000AFA05F500EB8C0C2C43046003F00704F3
:10437800DCF820E0A40009FA04F42EEA0404CCF8DE
:104388002040846824EA05048460446824EA020220
:104398004260C26822EA0502C260013331FA03F2C0
:1043A8007FF47EAFBDE8F08F4FF0040B0BFA04F4F6
:1043B800B8E74FF0020B0BFA04F4B3E74FF0030B26
:1043C8000BFA04F4AEE700224FF0010C3C4F0F2526
:1043D8004FF0B0464FF0030E02F003030CFA02F45C
:1043E80022F00308DB0011EA0409B84405FA03F3D4
:1043F80041D0D8F808A013EA0A0F19D1D8F808A0B4
:104408002AEA0303C8F80830D6F8803023EA0903FB
:10441800C6F88030D6F8843023EA0903C6F8843019
:10442800336823EA09033360736823EA0903736076
:104438004FEA420803684FEAD2090EFA08F800EB7F
:10444800890943EA0803036002F00703D9F820A0AA
:104458009B0005FA03F32AEA0303C9F820308368AE
:1044680023EA08038360436823EA04034360C368BC
:1044780023EA0803C360013231FA02F3ACD1BDE884
:10448800F08F4FF0070B0BFA04F44BE74FF0050BD6
:104498000BFA04F446E770474FF0060B0BFA04F4E6
:1044A80040E74FF0080B0BFA04F43BE70000025812
:1044B8000004025800080258000C02580010025864
:1044C800000400580014025800180258001C025832
:1044D80000200258002402580369194214BF012021
:1044E8000020704702B90904816170472DE9F04F37
:1044F800056885B00446284604F0C0FD012802D0AE
:1045080005B0BDE8F08F206804F068FD0028F7D0FA
:10451800206804F063FD10F4001F206802D04FF4F7
:104528000013436104F05AFD10F4801F206802D084
:104538004FF48013436104F051FD10F0806F206840
:1045480002D04FF08063436104F048FD10F0020F81
:10455800206830D104F042FD870000F1078120680F
:1045680004F03CFDC60100F1C380206804F036FD6C
:10457800000700F1B280206804F030FD10F0007FE1
:1045880020681BD104F02AFDC306B9D52568AB699C
:1045980023F01003AB612E6A06F4F011C6F30A1774
:1045A800B1F5802F02D1002F40F0DA81AB6943F0DA
:1045B8001003AB61A4E702234361CBE704F0C6FD17
:1045C800A26881462068002A00F08E8005F5A06563
:1045D800002640E05A075BD50423BB60FB6843F024
:1045E8000203FB60BB689B0500F12D81B96811F0DF
:1045F800010100F0CD8023694BB108EB88023969CD
:1046080004EBC202C1F31201936C5B1AD3644FEA44
:1046180088030122002003EB080104EBC10188652F
:1046280081F85D20BA6091F83F0010F0FD0F00F0AE
:104638008A81032800F02D82984404EBC80898F872
:10464800503083F0010388F85030A26820680136A2
:104658002035964248D206F00F0329FA03F3D9070A
:10466800F5D55FFA86F82B6800F5A06A13F4004FB9
:104678004FEA481B0AEB4817BB68ABD113F0040399
:104688000DD00423BB60FB6843F00203FB60DEE748
:10469800BB689B0640F1E5802023BB60A2E7B968B0
:1046A80011F0200C00F0F98008EB880C202104EBB5
:1046B800CC0CB9609CF83D100129C8D18CF83D306C
:1046C800022341468CF85C30FB6843F00203FB6030
:1046D80004F040FDA2682068B9E72046FEF7FCFA1E
:1046E80008232068436147E74FF00073436149E7B7
:1046F8002668D6F840340293D6F840340393039BD7
:1047080023F02E030393029B980707D5029BD90732
:1047180000F18181039B43F002030393029B1A0774
:1047280018D5039B43F008030393029B5B0740F1F2
:104738007A81A169022900F08581E368012B03D100
:104748004EF66022C6F804242046FEF7D3FA204627
:10475800FEF7C6FA2068029B9F0603D5039B43F029
:1047680020030393039BC6F84034FFE6D5F8403492
:10477800204623F02E03C5F84034FEF7B5FA012190
:10478800206804F0C1FC4FF0005320684361E7E65D
:10479800BB68980740F1B780FB6823F00203FB6011
:1047A80008EB880304EBC30393F85D204FEA880302
:1047B800501E072824D8DFE800F0292337233004C7
:1047C800230403EB080004EBC000836D0133032BC3
:1047D80096BF194604220222816580F85C205AF8A7
:1047E8000B3023F0804343F000434AF80B30022398
:1047F80020464146BB60FEF77BFAA268206826E7A0
:10480800434404EBC30393F85C20F0E743440121DD
:1048180004EBC30383F85C10E9E74344052104EB88
:10482800C30383F85C10E2E74344022204EBC303AA
:1048380083F85C205AF80B3023F0804343F00043A0
:104848004AF80B30D3E7FB684146206843F002037F
:10485800FB6004F07FFC4FF400732068BB60A26823
:10486800F5E6BB68190700F1AB80BB685A057FF510
:10487800B9AEFB68414643F00203FB6004F06AFCF2
:10488800102208EB8803BA60082204EBC30383F8FC
:104898005D204FF48063BB60A4E6BB685B0600F153
:1048A800A280BB6813F4007340F0D780B968C907C9
:1048B80000F1FE80BB6813F0080340F06F81B9680F
:1048C800C90640F10A8108EB880204EBC20293652D
:1048D800032382F85D3092F83D3043B9282303FB67
:1048E800084393F83C2012B9012283F83D20FB6865
:1048F800414643F00203FB6004F02CFC10232068BF
:10490800BB60A268A3E6BB68206813F08003014679
:1049180040F0A980BA68D20613D508EB880004EBEA
:10492800C00090F83F20032A00F04B8112F0FD02EE
:1049380004D123698265002B00F0638110230846A7
:10494800BB60A26883E6FA684146206842F002022A
:104958000193FA6004F0FEFB1022019BBA606BE63B
:1049680006F00F0606EB860804EBC808D8F84410D2
:1049780000293FF41BAE284605F5A0653A4604F029
:10498800A7FAD8F8443005EB46123B441169D8F829
:104998004C20C8F8443073013A44C8F84C20AB4A5C
:1049A8000A405AB1EA5822F0804242F00042EA50E6
:1049B80098F8503083F0010388F850302568F5E501
:1049C800FB680522414643F00203FB6008EB8803BD
:1049D80004EBC30383F85D201023BB600823BB608E
:1049E80004F0B8FBFEE508EB88030422414604EB1B
:1049F800C30383F85D200122C3F858C083F83D2023
:104A0800FB6843F00203FB6004F0A4FB402320682A
:104A1800BB60A2681BE6B369204623F00053B3616C
:104A2800FEF75EF976E62046FEF768F9D6F84034D8
:104A3800206823F02E03C6F84034836943F00053FE
:104A4800836188E6029B206803F4C023B3F5802FB6
:104A580018BF012104F058FB76E6FB68414643F095
:104A68000203FB60F5E6FB6808EB8802414604EBAD
:104A7800C20243F00203FB60936D01339365062382
:104A880082F85D3004F066FB80232068BB60A26872
:104A9800DDE55AF80B00019340F000504AF80B008E
:104AA800204681F85C204146FEF722F9019BC3E5C8
:104AB800FA68414642F0020C08EB880204EBC2088F
:104AC800C8F85830C7F80CC004F044FB0123BB6099
:104AD80088F85D30A2682068B9E5BB6819067ED4FD
:104AE800B96811F4806140F09C80BB689B077FF532
:104AF800AEADFB6823F00203FB60282303FB0843E9
:104B080093F85D30013B072B0BD8DFE803F0350A3B
:104B18000404181F0A1F2823022203FB084383F8F2
:104B28005C20282302222046414603FB0843BA6042
:104B380093F85C20FEF7DCF8A268206887E5282354
:104B4800052203FB084383F85C20EAE7282202FBDE
:104B58000842936D0133032B96BF194604230223A1
:104B6800916582F85C305AF80B3023F0804343F0AB
:104B780000434AF80B30D4E72823012203FB0843FB
:104B880083F85C2093F83F20023A012AC9D893F8A9
:104B9800512082F0010283F85120C2E708234146E0
:104BA80008EB8808BB60FB6843F00203FB6004F075
:104BB800D1FA052204EBC80383F85D20A2682068B7
:104BC80045E5FA680846282142F0020201FB08413F
:104BD8008B654146FA6004F0BDFA2168AEE6FB68D1
:104BE800414643F00203FB6004F0B4FA282306228E
:104BF80003FB084383F85D2080232068BB60A2681C
:104C080025E5282303220846414603FB084383F889
:104C18005D20FB6843F00203FB6004F09BFA216807
:104C28008CE6FB68414643F00203FB6004F092FA0D
:104C380010222823BA604FF4806203FB0843BA604D
:104C4800082283F85D20A268206800E50000F81FAC
:104C580090F8B832012B0CD0012310B50446006837
:104C680084F8B83204F0D6FA0023184684F8B8322B
:104C780010BD0220704700BF4B1C70B504462ED1F2
:104C880001688B699E0728D48B69DD06F9D58B6985
:104C98009A06FCD520231022CA61CB618B6998073C
:104CA80001D500238B628B69DA0703D48B6943F043
:104CB80001038B614B6820201D4D00222B404B6067
:104CC800636C43F00403636484F8410084F8422071
:104CD8000023012084F8403070BD002070BD0D46CF
:104CE800164621688B699B07F7D48B69D80610D4C0
:104CF800FEF730F9831BAB4201D8002DF1D1636C6C
:104D0800202100220B43636484F8411084F8422078
:104D1800DEE78B699B06BDD4FEF71CF9831B9D4219
:104D2800EDD3002DEBD021688B699B06F4D5B1E754
:104D380000E800FE70B504460D46164622689369E1
:104D48009B0646D49369DB0632D5681C2CD193693F
:104D58009906FCD520231021D161D3619369980766
:104D680001D5002393629369D90703D4936943F06B
:104D78000103936153682020174D00212B40536095
:104D8800636C43F00403636484F8410084F84210C0
:104D98000023012084F8403070BDFEF7DBF8831B48
:104DA8009D420CD35DB1226893699B06F5D5D1E786
:104DB800FEF7D0F8801BA84201D8002DBED1636C45
:104DC800202100220B43636484F8411084F84220B8
:104DD800DEE7002070BD00BF00E800FE00284ED0CE
:104DE80010B590F84130044603F0FF02002B41D083
:104DF80023682421626884F84110196822F07062DF
:104E0800E06821F00101012819601A619A68A16817
:104E180022F400429A6029D041F4044102289960A2
:104E280002D14FF400625A6058684FF0200C1549BF
:104E3800226901435960D96821F40041D960D4E955
:104E48000501024342EA0122D4E90710DA60002290
:104E5800014310461960196841F001011960626444
:104E680084F841C0226384F8422010BD41F4004117
:104E78009960D9E780F84020FCF7C4FBB8E7012027
:104E8800704700BF008000022DE9F843984690F86B
:104E98004130089E202B40F0848090F84030044632
:104EA800012B7ED001230F46914680F84030FEF753
:104EB80051F8054604E0FEF74DF8401B19287DD847
:104EC8002368986910F40040F5D12122C7F3090737
:104ED800C4F8249084F841201022606384F84220AA
:104EE8006064A4F82A80628D92B2FF2A74D8628D19
:104EF800454892B259682285D2B2014047EA024237
:104F08000A43424911435960638D2A463146204677
:104F18009BB2002B34D0FFF7AFFE002859D1616A4D
:104F2800226811F8010B238D9062B4F82AC0013B66
:104F380061620CF1FF3C9BB21FFA8CFC2385A4F83C
:104F48002AC0618D89B20029DED0002BDCD1701C0B
:104F58002CD193691906FCD5638D9BB2FF2B45D9DB
:104F6800536820462A490B402A493B431943FF23EB
:104F7800238551602A46638D31469BB2002BCAD1E6
:104F8800FFF7D8FE28BB23682021234DD9615A6832
:104F98002A405A6084F8411084F8400084F842009E
:104FA80000E00220BDE8F88346B1226893691B0639
:104FB800D2D4FDF7CFFF431B9E42F5D2636C20216C
:104FC80000220B4384F84020636484F8411084F87D
:104FD80042200120BDE8F8835A680B490A400F496E
:104FE8003A431143FF22228559608DE7638D0848B3
:104FF8009BB2D9B22385536803403B4343EA01433C
:1050080043F0007353607FE7009800FC00200082A3
:10501800009C00FC0000FF0100E800FE0020FF816A
:105028002DE9F8431D4690F84130202B40F083804D
:1050380004460E46002978D0B2FA82F817464FEA9D
:105048005818002A71D05FFA83F990F84030012B84
:1050580071D0012380F84030FDF77CFF21682123BF
:105068006A1C6662064684F8413084F84290C4F8A7
:10507800448067854B68C4F8348023F400434B6050
:1050880064D18A691307FCD50823CB61E368022B36
:1050980006D08B69DB031ED48B69DB03F9D51AE0D4
:1050A8008B691807FCD50823CB61F2E732462946FD
:1050B8002046FFF7E1FD002840D1636A226813F813
:1050C800011B9162B4F82AC063620CF1FF3C1FFA1D
:1050D8008CFCA4F82AC0638D9BB2002BE6D1324623
:1050E80029462046FFF726FE70B32268536843F42A
:1050F80000435360636C042B1AD10023636420239C
:10510800681CD36152D193691904FCD451680023F7
:10511800202041F40041516084F84100184684F889
:10512800423084F84030BDE8F8834FF4007363647C
:105138000120BDE8F8830220BDE8F883226853689F
:1051480043F400435360F3E72268D8E78B691F07ED
:105158000AD4FDF7FFFE831B9D4235D3002D33D0C3
:1051680021688B691F07F4D50823CB61E368022BFC
:105178000ED18B691A0709D4FDF7ECFE831B9D42FB
:1051880022D30DB321688B691A07F5D50823CB61A3
:105198008B69DF039FD4FDF7DDFE831B9D4213D38C
:1051A80095B121688B69DF03F5D594E793691B04F2
:1051B800ACD5FDF7CFFE831B9D4205D325B12268F0
:1051C80093691B04F5D4A1E7636C202000212268B1
:1051D800034384F84010636484F8410084F8421063
:1051E800536843F400435360A2E700BF0268436B6F
:1051F8009169126803B11847704700BF90F84100E1
:10520800704700BF90F84120202A23D15FFA82FC22
:1052180090F840200346012A1CD00268242000B5DB
:1052280083F841004FF0000E106820F00100106074
:10523800106820F4805010601068014370461160B7
:10524800116841F00101116083F841C083F840E022
:105258005DF804FB0220704790F84120202A22D1F3
:10526800034600B55FFA82FE90F84020012A1CD060
:10527800026824204FF0000C83F84100106820F0E9
:1052880001001060106820F4706040EA0121604657
:105298001160116841F00101116083F841E083F861
:1052A80040C05DF804FB0220704702205DF804FB53
:1052B80003682DE9F04F87B004461846029303F0BF
:1052C800DDFE10B107B0BDE8F08F0546206803F099
:1052D80085FE0028F6D0206803F080FE10F0020F4B
:1052E800206803D0436903F00203436103F076FEAC
:1052F800000300F1A5814FF0000A206803F06EFE5C
:1053080010F4802F206840F0F38003F067FE002837
:1053180079DB206803F062FE000568D4206803F09A
:105328005DFE020114D52268536903F000635361DE
:1053380094F8F433002B40F0EB810121204684F8E7
:10534800F413536DC3F38303C4F8F83300F036FC49
:10535800206803F043FEC30400F18280206803F054
:105368003DFE10F4005F206863D103F037FE10F0B3
:10537800100F206815D0836923F010038361029B06
:105388001D6A05F4F01305F00F06B3F5802F00F041
:105398003582B3F5402F00F0D181836943F01003C3
:1053A800836103F01BFE070700F1A981206803F061
:1053B80015FEC60200F19881206803F00FFE8502F1
:1053C80000F18781206803F009FE400000F1788130
:1053D800206803F003FE41077FF574AF23685D681A
:1053E8006A0700F12C825A682A435A606AE7029BCE
:1053F800D3F80838D90700F11E822068436903F4FE
:10540800006343618BE7029B03F50062D3F804381D
:1054180023F00103536094F8F433012B00F08781E3
:105428002046FDF7E7FB2068436903F0004343612A
:1054380070E703F027FE206803F056FB2568E0605C
:1054480001F026FD227B0146284603F0B1FA2046EA
:10545800FDF7A6FB2068436903F40053436184E722
:10546800029B1021206803F50066736823F001038E
:10547800736003F01FFB6068B0B1029B4FF67F3189
:1054880003F51063996001351A682033854222F4C8
:10549800001243F8202CC3F8E811D3F8E02122F4D5
:1054A8000012C3F8E021EDD1F36943F00113F36171
:1054B800236B002B40F03081726942F22B031343B7
:1054C8007361336943F00B033361029904F5717218
:1054D8002068D1F8003823F4FE63C1F80038217C35
:1054E80003F0EAFD2068436903F48053436136E71B
:1054F80003F08CFD82462068BAF1000F3FF405AF37
:10550800029B27464FF0000BD04603F51069CDE902
:1055180003A509E05FEA58080BF1010B07F11C0726
:1055280009F1200900F01D8118F0010FF2D05FFA8F
:105538008BFA514603F086FDC50706461FD50121A3
:1055480002980BF00F02D0F8343801FA02F223EA7D
:105558000203C0F834382369C9F808108B4203D114
:10556800D7E911231344BB6451462046FDF70AFBD3
:105578002369012B03D1BBF1000F00F0AB81256833
:10558800300702D50823C9F80830F10602D51023E0
:10559800C9F80830720602D54023C9F80830B307A5
:1055A80002D50223C9F8083036062846B2D5D7E90D
:1055B8001463B342AED8A6EB030E7A6C05F5106CF3
:1055C80096450CEB4B1C28BF9646DCF818100EF1DC
:1055D80003021FFA81FEBEEB920FC0F07181CDF875
:1055E80014B0E3461AE07B6C5246B96C28469E42DA
:1055F80028BF1E46237C0093B3B203F053FCBB6C58
:10560800DBF81820334492B2BB647B6D3344033615
:10561800B2EB960F7B65C0F04F813E6D9E42A6EBC4
:105628000306E0D8DDF814B020680BF00F03012260
:105638009A40D5F8343823EA0203C5F8343869E7C4
:10564800206803F0D5FC814600283FF454AE029B45
:105658000646A3464FF0000803F530672068CDE9F9
:10566800039507E0760808F1010807F120070BF118
:105678001C0B7DD0F107F5D55FFA88F5294603F0B4
:10568800D3FC10F0010F814679D100F00803002BFC
:1056980040F0A280206819F0100F01D01023BB60E1
:1056A80019F0200F05D02169012900F00D81202370
:1056B800BB6019F4005FD5D04FF40053BB60D1E74D
:1056C8002046FDF7A3FA2068436903F0804343614D
:1056D8007FE620465FFA8AF1FDF790FA2068436971
:1056E80003F4001343616EE620465FFA8AF1FDF782
:1056F80089FA2068436903F4801343615DE6204614
:10570800FDF74AFA2068436903F0080343614EE64F
:105718002046FDF757FA1BE6D6F8843043F00B0312
:10572800C6F88430736C43F00B037364CDE6002134
:10573800204684F8F41300F041FA74E6C6EBC60676
:10574800082204F57171029803F0C2FBC5F30A132D
:1057580004EB86022068D2F814120B44C2F8143203
:105768001BE6DDE903A5BAFA8AF3C3F1200ACCE502
:10577800DDE90395B9FA89FBCBF1200ABEE520687B
:105788000123226900F5306ABB60012AD0F840E0A5
:105798000AEB481A09F00803DAF8081072D0734ABD
:1057A800964568D10A0461D54FF40042CAF808202A
:1057B800002B3FF470AF036CDAF808106B4A934281
:1057C80042D020460593FDF7CDF9694A059B9342DF
:1057D80043D80823BB605DE72368226903F5306A74
:1057E8001B6C012A0AEB481ADAF80810E6D1604A5D
:1057F800934229D82046FDF7B5F9EAE747F6F07352
:105808001D423FF4CAADC6EBC606C5F30A1202989C
:1058180004EB86061546D6F8081203F059FBD6F8AD
:10582800083220682B44C6F80832D6F814322B44C4
:10583800C6F81432B1E52046FDF7C4F9DDE5204687
:10584800FDF7E8F92368CEE50B044FD54FF4004384
:105858002046CAF80830FDF785F921690129B8D131
:1058680004F57172206803F027FCB2E78A0602D5B6
:105878002022CAF80820294620460593FDF778F922
:10588800059B04E70A0735D5394A964505D9090421
:1058980003D54FF40042CAF8082020460593FDF7C7
:1058A80061F904F571720121206803F005FC0822F2
:1058B800059BCAF80820EAE6DDF814B03E6D2068BA
:1058C8009E423FF627AEB0E604F5717203F0F4FB92
:1058D8002068ECE6236D2568002B7FF451AE28463E
:1058E80004F57172012103F0E7FB48E62046FDF755
:1058F80039F9B2E78A0609D52022CAF80820002B10
:105908003FF4C9AE036CDAF8081070E7184A9645F8
:1059180006D9090404D54FF40042CAF80820EEE776
:10592800DAF810202946DBF80402C2F312020593C4
:10593800821ACBF81422DBF8082202442046CBF85E
:105948000822FDF715F9059BB8F1000F7FF49FAE0B
:10595800D4F81022002A7FF49AAE04F5717201215E
:10596800206803F0A9FB059B91E600BF0A31544F5C
:105978000A30544F90F8BC23012A0ED0012210B5EA
:105988000446006884F8381084F8BC2303F014FB3C
:105998000023184684F8BC3310BD0220704700BFAE
:1059A80010B501F00F0E09060446CEEBCE0C4FEAF7
:1059B8008C0C25D40CF5FE714FF0000C0144CEEB95
:1059C800CE0004EB800080F8FDC18A604A7881F837
:1059D80000E0CB700AB1A1F806E0022B01D1002348
:1059E8000B7194F8BC33012B16D00123206884F87E
:1059F800BC3303F08BF80023184684F8BC3310BD81
:105A08000CF13C014FF0010C0144CEEBCE0004EB4D
:105A1800800080F83DC0D8E7022010BD10B501F025
:105A28000F041C21C4EBC40C01FB040100EB8C0C1B
:105A380001F5FE71CCF810320023CCF808228CF85E
:105A4800FC41CCF814328CF8FD3103690068012B55
:105A580008BFCCF80C22DAB21CB903F0A7F9002071
:105A680010BD03F099F8002010BD00BF10B501F07B
:105A78000F041C21C4EBC40C01FB040100EB8C0CCB
:105A88003C31CCF850300023CCF84820CCF85430C6
:105A980001238CF83C408CF83D3003690068012BE9
:105AA80008BFCCF84C20DAB21CB903F07FF900200B
:105AB80010BD03F071F8002010BD00BF38B5436871
:105AC80001F00F059D4234D80B0604461DD41C2254
